:100000000C9446000C9465000C9465000C946500FB
:100010000C9465000C9465000C9465000C946500CC
:100020000C9465000C9465000C9465000C946500BC
:100030000C9465000C9465000C9465000C946500AC
:100040000C9465000C9465000C9465000C9465009C
:100050000C9465000C9465000C9465000C9465008C
:100060000C9465000C9465000C9465000C9465007C
:100070000C9465000C9465000C9465000C9465006C
:100080000C9465000C9465000C94650011241FBE4F
:10009000CFEFD0E4DEBFCDBF11E0A0E0B1E0E6ECF1
:1000A000F3E000E00BBF02C007900D92AE30B10745
:1000B000D9F721E0AEE0B1E001C01D92A031B20756
:1000C000E1F70E94B7010C94E1010C940000CF937A
:1000D000DF9300D01F92CDB7DEB789837B836A831D
:1000E00089818A3031F48A819B81BC018DE00E9434
:1000F000670080EC90E0FC018081882F90E08072A6
:100100009927892BB1F386EC90E02981FC012083AB
:1001100080E090E00F900F900F90DF91CF910895C5
:10012000CF93DF93CDB7DEB780910E0190910F0191
:100130008230910509F43EC08330910528F4009780
:1001400079F00197A1F0DAC08430910509F484C0F8
:100150008430910508F457C0059709F4A6C0CEC0B5
:1001600081E090E090930F0180930E01CDC080E27A
:1001700090E0FC018081882F90E081709927892B85
:1001800039F081E090E090930F0180930E01BBC0A5
:1001900080E290E0FC018081882F90E081709927B7
:1001A000892B09F0B0C082E090E090930F0180931A
:1001B0000E01A9C080E290E0FC018081882F90E0D0
:1001C00081709927892B39F482E090E090930F0198
:1001D00080930E0199C080E290E0FC018081882F1D
:1001E00090E081709927892B39F083E090E090931B
:1001F0000F0180930E0188C081E090E090930F0181
:1002000080930E0181C080E290E0FC018081882F04
:1002100090E081709927892B39F484E090E09093E5
:100220000F0180930E0170C080E290E0FC0180819C
:10023000882F90E081709927892B39F083E090E036
:1002400090930F0180930E015FC081E090E0909346
:100250000F0180930E0158C080E290E0FC01808184
:10026000882F90E081709927892B39F484E090E001
:1002700090930F0180930E0147C080E290E0FC0153
:100280008081882F90E081709927892B39F085E053
:1002900090E090930F0180930E0136C081E090E0D2
:1002A00090930F0180930E012FC080E290E0FC013B
:1002B0008081882F90E081709927892B39F481E023
:1002C00090E090930F0180930E011EC080E290E0B9
:1002D000FC018081882F90E081709927892B39F06B
:1002E00085E090E090930F0180930E010DC081E0B6
:1002F00090E090930F0180930E0106C010920F01C1
:1003000010920E0101C0000080910E0190910F012A
:1003100082309105B9F08330910528F40097F1F00F
:10032000019751F020C08430910591F084309105FF
:10033000B8F00597B9F017C085E290E02FE3FC0113
:10034000208311C085E290E025E1FC0120830BC0F1
:1003500085E290E02AE2FC01208305C0000003C092
:10036000000001C000000000DF91CF910895CF93FD
:10037000DF93CDB7DEB781E290E0FC01108282E22C
:1003800090E02FEFFC01208384E290E02FEFFC014E
:10039000208385E290E0FC01108287E290E02FEF5D
:1003A000FC01208388E290E0FC0110820E94900012
:1003B00088E290E020910E0130910F01FC01208332
:0603C000F5CFF894FFCF19
:0E03C6000000000200000000670000000000C0
:00000001FF
