:100000000C9454000C9473000C9473000C947300C3
:100010000C9473000C9473000C9473000C94730094
:100020000C9473000C9473000C9473000C94730084
:100030000C9473000C9473000C9473000C94730074
:100040000C9473000C9473000C9473000C94730064
:100050000C9473000C9473000C9473000C94730054
:100060000C9473000C9473000C9473000C94730044
:100070000C9473000C9473000C9473000C94730034
:100080000C9473000C9473000C947300B8008601F8
:10009000BF00E2000B0134015D01D301CB01B901C6
:1000A000BF01D301C501D30111241FBECFEFD0E49E
:1000B000DEBFCDBF11E0A0E0B1E0EAE1F4E000E096
:1000C0000BBF02C007900D92AE30B107D9F721E007
:1000D000AEE0B1E001C01D92A031B207E1F70E948D
:1000E000D8010C940B020C940000CF93DF9300D046
:1000F0001F92CDB7DEB789837B836A8389818A307B
:1001000031F48A819B81BC018DE00E94750080ECF6
:1001100090E0FC018081882F90E080729927892BE4
:10012000B1F386EC90E02981FC01208380E090E02F
:100130000F900F900F90DF91CF910895CF93DF93A1
:10014000CDB7DEB780910E0190910F01CC01A0E0F8
:10015000B0E040E050E026E030E0841B950B28172B
:10016000390708F4EBC08A5B9F4FFC010C94020234
:1001700082E090E090930F0180930E01E5C080E251
:1001800090E0FC018081882F90E081709927892B75
:1001900039F082E090E090930F0180930E01D3C07C
:1001A00080E290E0FC018081882F90E081709927A7
:1001B000892B09F0C8C083E090E090930F018093F1
:1001C0000E01C1C080E290E0FC018081882F90E0A8
:1001D00081709927892B39F483E090E090930F0187
:1001E00080930E01B1C080E290E0FC018081882FF5
:1001F00090E081709927892B39F084E090E090930A
:100200000F0180930E01A0C082E090E090930F0157
:1002100080930E0199C080E290E0FC018081882FDC
:1002200090E081709927892B39F485E090E09093D4
:100230000F0180930E0188C080E290E0FC01808174
:10024000882F90E081709927892B39F084E090E025
:1002500090930F0180930E0177C082E090E090931D
:100260000F0180930E0170C080E290E0FC0180815C
:10027000882F90E081709927892B39F485E090E0F0
:1002800090930F0180930E015FC080E290E0FC012B
:100290008081882F90E081709927892B39F086E042
:1002A00090E090930F0180930E014EC082E090E0A9
:1002B00090930F0180930E0147C080E290E0FC0113
:1002C0008081882F90E081709927892B39F481E013
:1002D00090E090930F0180930E0136C080E290E091
:1002E000FC018081882F90E081709927892B39F05B
:1002F00086E090E090930F0180930E0125C082E08C
:1003000090E090930F0180930E011EC080E290E078
:10031000FC018081882F90E081709927892B39F426
:1003200081E090E090930F0180930E010DC082E078
:1003300090E090930F0180930E0106C010920F0180
:1003400010920E0101C0000080910E0190910F01EA
:10035000CC01A0E0B0E040E050E026E030E0841BBB
:10036000950B28173907E8F0835B9F4FFC010C942D
:10037000020285E290E02FE3FC01208315C085E2B4
:1003800090E025E1FC0120830FC085E290E02AE2A5
:10039000FC01208309C085E290E02FE3FC0120836B
:1003A00003C0000001C000000000DF91CF9108955C
:1003B000CF93DF93CDB7DEB781E290E0FC011082EE
:1003C00082E290E02FEFFC01208384E290E02FEFA7
:1003D000FC01208385E290E0FC01108287E290E03E
:1003E0002FEFFC01208388E290E0FC0110820E9444
:1003F0009E0088E290E020910E0130910F01FC01F7
:100400002083F5CFEE0FFF1F0024001C0BBE0790CA
:0A041000F691E02D0994F894FFCF57
:0E041A0000000002000000007500000000005D
:00000001FF
