:100000000C9446000C945D000C945D000C945D0013
:100010000C945D000C945D000C945D000C945D00EC
:100020000C945D000C945D000C945D000C945D00DC
:100030000C945D000C945D000C945D000C945D00CC
:100040000C945D000C945D000C945D000C945D00BC
:100050000C945D000C945D000C945D000C945D00AC
:100060000C945D000C945D000C945D000C945D009C
:100070000C945D000C945D000C945D000C945D008C
:100080000C945D000C945D000C945D0011241FBE67
:10009000CFEFD0E4DEBFCDBF11E0A0E0B1E0EAECED
:1000A000F1E000E00BBF02C007900D92AE30B10747
:1000B000D9F70E9488000C94E3000C940000CF93C1
:1000C000DF9300D01F92CDB7DEB789837B836A832D
:1000D00089818A3031F48A819B81BC018DE00E9444
:1000E0005F0080EC90E0FC018081882F90E08072BE
:1000F0009927892BB1F386EC90E02981FC012083BC
:1001000080E090E00F900F900F90DF91CF910895D5
:10011000CF93DF931F92CDB7DEB781E290E0FC0171
:10012000108282E290E02FEFFC01208387E290E0D2
:100130002FEFFC01208388E290E0FC0110821982FD
:1001400080E290E0FC01808180958F7089838981B5
:10015000882331F488E290E020E4FC012083F0CF92
:100160008981833030F488E290E020E6FC0120832E
:10017000E7CF8981853030F488E290E020E7FC0108
:100180002083DECF8981873030F488E290E028E355
:10019000FC012083D5CF89818A3030F488E290E059
:1001A0002CE3FC012083CCCF89818D3030F488E2B0
:1001B00090E02EE3FC012083C3CF88E290E02FE3A0
:0A01C000FC012083BDCFF894FFCFAF
:0E01CA0000000002000000005F0000000000C6
:00000001FF
