:100000000C9456000C9475000C9475000C947500BB
:100010000C9475000C9475000C9475000C9475008C
:100020000C9475000C9475000C9475000C9475007C
:100030000C9475000C9475000C9475000C9475006C
:100040000C9475000C9475000C9475000C9475005C
:100050000C9475000C9475000C9475000C9475004C
:100060000C9475000C9475000C9475000C9475003C
:100070000C9475000C9475000C9475000C9475002C
:100080000C9475000C9475000C947500BA00C100B6
:1000900021018701ED01C8005401BA01560229026D
:1000A0002F023F024F0256025602560211241FBE73
:1000B000CFEFD0E4DEBFCDBF11E0A0E0B1E0E6E0DD
:1000C000F5E000E00BBF02C007900D92AE30B10723
:1000D000D9F721E0AEE0B1E001C01D92A031B20736
:1000E000E1F70E945F020C9481020C940000CF9310
:1000F000DF9300D01F92CDB7DEB789837B836A83FD
:1001000089818A3031F48A819B81BC018DE00E9413
:10011000770080EC90E0FC018081882F90E0807275
:100120009927892BB1F386EC90E02981FC0120838B
:1001300080E090E00F900F900F90DF91CF910895A5
:10014000CF93DF93CDB7DEB780910E0190910F0171
:10015000CC01A0E0B0E040E050E027E030E0841BBC
:10016000950B2817390708F45AC18A5B9F4FFC0189
:100170000C94780281E090E090930F0180930E013F
:1001800053C185E090E090930F0180930E014CC124
:1001900080E290E0FC018081882F90E081709927B7
:1001A000892B89F480E290E0FC018081882F90E027
:1001B00082709927892B39F082E090E090930F01AB
:1001C00080930E013DC080E290E0FC018081882F89
:1001D00090E081709927892B89F080E290E0FC0102
:1001E0008081882F90E082709927892B39F483E0F1
:1001F00090E090930F0180930E0122C080E290E086
:10020000FC018081882F90E081709927892B89F4E7
:1002100080E290E0FC018081882F90E08270992735
:10022000892B39F484E090E090930F0180930E01C4
:1002300007C085E090E090930F0180930E01F4C019
:10024000F3C080E290E0FC018081882F90E0817013
:100250009927892B39F085E090E090930F018093E6
:100260000E01E2C080E290E0FC018081882F90E0E6
:1002700081709927892B89F480E290E0FC018081CC
:10028000882F90E082709927892B39F484E090E0E0
:1002900090930F0180930E01C7C086E090E0909389
:1002A0000F0180930E01C0C080E290E0FC018081CC
:1002B000882F90E081709927892B39F085E090E0B4
:1002C00090930F0180930E01AFC080E290E0FC019B
:1002D0008081882F90E081709927892B89F480E2B2
:1002E00090E0FC018081882F90E082709927892B13
:1002F00039F484E090E090930F0180930E0194C054
:1003000086E090E090930F0180930E018DC080E213
:1003100090E0FC018081882F90E082709927892BE2
:1003200039F085E090E090930F0180930E017CC03E
:1003300080E290E0FC018081882F90E08170992715
:10034000892B89F480E290E0FC018081882F90E085
:1003500082709927892B39F484E090E090930F0103
:1003600080930E0161C087E090E090930F0180932D
:100370000E015AC080E290E0FC018081882F90E05D
:1003800082709927892B39F085E090E090930F01D6
:1003900080930E0149C080E290E0FC018081882FAB
:1003A00090E081709927892B89F480E290E0FC012C
:1003B0008081882F90E082709927892B39F484E01E
:1003C00090E090930F0180930E012EC087E090E0A3
:1003D00090930F0180930E0127C080E290E0FC0112
:1003E0008081882F90E081709927892B89F480E2A1
:1003F00090E0FC018081882F90E082709927892B02
:1004000039F484E090E090930F0180930E010CC0CA
:1004100085E090E090930F0180930E0105C010924B
:100420000F0110920E01000080910E0190910F01BA
:10043000CC01A0E0B0E040E050E027E030E0841BD9
:10044000950B2817390780F1825B9F4FFC010C94B4
:10045000780288E290E027E0FC0120832CC088E24B
:1004600090E0FC018081893018F588E290E028E274
:1004700030E0F90120812F5FFC01208319C088E260
:1004800090E0FC0180818823A9F088E290E028E2D6
:1004900030E0F90120812150FC0120830BC088E26B
:1004A00090E0FC01108207C0000005C0000003C0FE
:1004B000000001C000000000DF91CF910895CF93AC
:1004C000DF93CDB7DEB781E290E0FC01108282E2DB
:1004D00090E02FEFFC01208387E290E02FEFFC01FA
:1004E000208388E290E0FC0110820E94A000FDCFF2
:1004F000EE0FFF1F0024001C0BBE0790F691E02DAD
:060500000994F894FFCFFE
:0E05060000000002000000007700000000006E
:00000001FF
