:100000000C9446000C945D000C945D000C945D0013
:100010000C945D000C945D000C945D000C945D00EC
:100020000C945D000C945D000C945D000C945D00DC
:100030000C945D000C945D000C945D000C945D00CC
:100040000C945D000C945D000C945D000C945D00BC
:100050000C945D000C945D000C945D000C945D00AC
:100060000C945D000C945D000C945D000C945D009C
:100070000C945D000C945D000C945D000C945D008C
:100080000C945D000C945D000C945D0011241FBE67
:10009000CFEFD0E4DEBFCDBF11E0A0E0B1E0EEECE9
:1000A000F1E000E00BBF02C007900D92AE30B10747
:1000B000D9F70E9488000C94E5000C940000CF93BF
:1000C000DF9300D01F92CDB7DEB789837B836A832D
:1000D00089818A3031F48A819B81BC018DE00E9444
:1000E0005F0080EC90E0FC018081882F90E08072BE
:1000F0009927892BB1F386EC90E02981FC012083BC
:1001000080E090E00F900F900F90DF91CF910895D5
:10011000CF93DF931F92CDB7DEB781E290E0FC0171
:10012000108282E290E02FEFFC01208387E290E0D2
:100130002FEFFC01208388E290E0FC0110821982FD
:1001400080E290E0FC01908181E0992309F080E059
:1001500089838981882331F488E290E020E4FC01DE
:100160002083EECF8981833030F488E290E020E66E
:10017000FC012083E5CF8981853030F488E290E06E
:1001800020E7FC012083DCCF8981873030F488E2CE
:1001900090E028E3FC012083D3CF89818A3030F4BA
:1001A00088E290E02CE3FC012083CACF89818D3066
:1001B00030F488E290E02EE3FC012083C1CF88E296
:0E01C00090E02FE3FC012083BBCFF894FFCF2B
:0E01CE0000000002000000005F0000000000C2
:00000001FF
